:100000000C9446000C9465000C9465000C946500FB
:100010000C9465000C9465000C9465000C946500CC
:100020000C9465000C9465000C9465000C946500BC
:100030000C9465000C94DE000C9465000C94650033
:100040000C9465000C9465000C9465000C9465009C
:100050000C9465000C9465000C9465000C9465008C
:100060000C9465000C9465000C9465000C9465007C
:100070000C9465000C9465000C9465000C9465006C
:100080000C9465000C9465000C94650011241FBE4F
:10009000CFEFD0E4DEBFCDBF11E0A0E0B1E0EEE4F1
:1000A000F8E000E00BBF02C007900D92A032B1074C
:1000B000D9F721E0A0E2B1E001C01D92A933B20757
:1000C000E1F70E94DF030C9425040C940000CF9309
:1000D000DF9300D00F92CDB7DEB789837B836A832D
:1000E00089818A3031F48A819B81BC018DE00E9434
:1000F000670080EC90E0FC018081882F90E08072A6
:100100009927892BB1F386EC90E02981FC012083AB
:1001100080E090E00F900F900F90DF91CF910895C5
:10012000CF93DF93CDB7DEB781E890E02BE0FC0101
:10013000208388E890E02DE030E0FC0131832083CB
:100140008FE690E022E0FC01208384E890E0FC014F
:100150001182108280910E0190910F01A0911001E7
:10016000B09111018093210190932201A09323016A
:10017000B09324018FE590E0FC0120818FE590E0B1
:100180002068FC0120830000DF91CF910895CF9378
:10019000DF93CDB7DEB781E890E0FC01108200006C
:1001A000DF91CF910895CF93DF93CDB7DEB781E094
:1001B000809320010000DF91CF9108951F920F924C
:1001C0000FB60F9211240BB60F922F933F934F93BC
:1001D0005F936F937F938F939F93AF93BF93EF93AF
:1001E000FF93CF93DF93CDB7DEB78091210190913C
:1001F0002201A0912301B09124010197A109B10925
:100200008093210190932201A0932301B0932401B4
:100210008091210190912201A0912301B0912401AC
:10022000892B8A2B8B2B91F40E94D30080910E0195
:1002300090910F01A0911001B091110180932101C3
:1002400090932201A0932301B09324010000DF9139
:10025000CF91FF91EF91BF91AF919F918F917F913E
:100260006F915F914F913F912F910F900BBE0F9027
:100270000FBE0F901F901895CF93DF9300D000D042
:10028000CDB7DEB769837A838B839C8389819A811A
:10029000AB81BC8180930E0190930F01A09310015C
:1002A000B093110180910E0190910F01A091100166
:1002B000B09111018093210190932201A093230119
:1002C000B093240100000F900F900F900F90DF91DA
:1002D000CF910895CF93DF93CDB7DEB780913301EF
:1002E000909134018230910509F441C08330910529
:1002F00008F058C0009719F00197E1F053C0209121
:100300002801309129018091120190911301281741
:10031000390759F481E090E09093340180933301E0
:10032000109229011092280142C0109234011092BB
:1003300033013DC0209128013091290180911201A3
:10034000909113012817390759F482E090E09093B7
:10035000340180933301109229011092280127C0A3
:1003600081E090E0909334018093330120C020918C
:1003700028013091290180911201909113012817D1
:10038000390749F410923401109233011092290177
:10039000109228010CC082E090E090933401809389
:1003A000330105C010923401109233010000809196
:1003B0003301909134018230910511F18330910520
:1003C00060F5009719F0019771F027C0809128011E
:1003D000909129010196909329018093280181E051
:1003E0008093250121C080912801909129010196D7
:1003F000909329018093280182E08093250114C005
:100400008091280190912901019690932901809370
:10041000280184E08093250107C0109229011092E1
:1004200028011092250100000000DF91CF9108956E
:10043000CF93DF93CDB7DEB780913701909138012C
:10044000009719F00197E1F036C020912A01309110
:100450002B0180911401909115012817390759F447
:1004600081E090E0909338018093370110922B0146
:1004700010922A0125C0109238011092370120C035
:1004800020912A0130912B01809114019091150146
:100490002817390749F41092380110923701109249
:1004A0002B0110922A010CC081E090E0909338015A
:1004B0008093370105C01092380110923701000077
:1004C0008091370190913801009719F0019771F0F0
:1004D0001AC080912A0190912B01019690932B01D3
:1004E00080932A0188E08093260114C080912A011C
:1004F00090912B01019690932B0180932A0181E02A
:100500008093260107C010922B0110922A011092AD
:10051000260100000000DF91CF910895CF93DF9373
:10052000CDB7DEB78091350190913601892B71F4FA
:100530009091250180912601392F382B2091270198
:1005400085E290E0232BFC01208305C01092360148
:100550001092350100000000DF91CF910895CF93F4
:10056000DF93CDB7DEB780912F01909130010097D6
:1005700019F00197D9F040C080912D01882F90E0AB
:100580008A5E9E4FFC01908180912C01981749F45E
:1005900081E090E09093300180932F0110922C0124
:1005A00032C01092300110922F012DC080E290E0F5
:1005B000FC018081882F90E0809590958470992728
:1005C000049799F480912D01882F90E08A5E9E4FC8
:1005D000FC01908180912C01981739F41092300120
:1005E00010922F0110922C010EC081E090E09093A8
:1005F000300180932F0107C081E090E0909330019B
:1006000080932F01000080912F019091300100977D
:1006100019F0019751F011C080912C018F5F8093E8
:100620002C0180E1809327010BC080912C018F5F0A
:1006300080932C011092270103C010922701000023
:100640000000DF91CF910895CF93DF93CDB7DEB750
:1006500080913101909132018330910509F449C0B4
:100660008430910508F068C082309105D9F183305B
:10067000910508F061C0009719F0019761F15CC025
:1006800080E290E0FC018081882F90E08095909539
:1006900083709927019739F481E090E090933201BB
:1006A0008093310150C080E290E0FC018081882F6E
:1006B00090E08095909583709927029739F482E0B5
:1006C00090E090933201809331013DC0109232014D
:1006D0001092310138C083E090E090933201809312
:1006E000310131C083E090E0909332018093310179
:1006F0002AC080912E01823338F483E090E09093F9
:100700003201809331011FC080E290E0FC018081C2
:10071000882F90E08095909583709927892B29F4F4
:1007200010923201109231010EC083E090E090935C
:1007300032018093310107C010922E0110923201D4
:10074000109231010000809131019091320183308B
:10075000910529F18430910540F582309105A9F089
:100760008330910510F5009719F0019721F01DC015
:1007700010922E0120C080912D018730C8F4809105
:100780002D018F5F80932D0113C080912D0188234F
:1007900089F080912D01815080932D010BC08091B3
:1007A0002E018F5F80932E0106C010922E0103C090
:1007B000000001C000000000DF91CF910895CF93A9
:1007C000DF93CDB7DEB781E290E0FC01108282E2D8
:1007D00090E02FEFFC01208384E290E02FEFFC01FA
:1007E000208385E290E0FC01108287E290E02FEF09
:1007F000FC01208388E290E0FC0110828AE290E014
:100800002FEFFC0120838BE290E0FC01108261E07D
:1008100070E080E090E00E943C010E94900085E240
:1008200090E0FC0110820000809120018823E1F318
:10083000109220010E946A010E9418020E94240363
:0E0840000E94AF020E948E02EECFF894FFCF0E
:10084E000000000200000000670000000000010030
:10085E000000B80B102726221E1C19161412F401C4
:00000001FF
